:100000000C9476010C949E010C949E010C94EA06CB
:100010000C94EA060C94EA060C949E010C949E0142
:100020000C949E010C949E010C949E010C949E01D4
:100030000C949E010C949E010C949E010C949E01C4
:100040000C94A0060C949E010C946E060C94480629
:100050000C949E010C949E010C949E010C949E01A4
:100060000C949E010C949E014552524F523A204DE1
:10007000756C7469706C65206F72206E6F2073658B
:100080006E736F727320636F6E6E65637465642E3A
:1000900020436F6E6E656374206F6E652073656EAE
:1000A000736F7220616E6420747279206167616978
:1000B0006E2E00466F756E642073656E736F7220CE
:1000C00077697468204944203D20004C6F6F6B694C
:1000D0006E6720666F722073656E736F722E2E2EA0
:1000E00020004552524F523A20436F756C64206E87
:1000F0006F74206368616E67652073656E736F72DD
:100100002049442E0053656E736F7220494420636A
:1001100068616E6765642073756363657366756C8B
:100120006C792E005265636F6E6E6563742074681F
:10013000652073656E736F7220666F7220746865D8
:10014000206368616E67657320746F2074616B65EE
:10015000206566666563742E002E2E2E0020746F57
:1001600020004368616E67696E672073656E736F08
:10017000722049442066726F6D2000526573746F5F
:1001800072696E672073656E736F7220746F20667C
:100190006163746F72792064656661756C74207335
:1001A000657474696E67732E2E2E004E657720730A
:1001B000656E736F72204944203D20005220746F99
:1001C00020726573746F72652073656E736F722031
:1001D000746F20666163746F7279206465666175FF
:1001E0006C7473206F72205820746F206578697466
:1001F00020776974686F7574206368616E676573D2
:10020000005072657373202B2F2D20746F2073653F
:100210006C656374206E65772073656E736F7220F2
:1002200049442C205320746F2073657420746865D2
:10023000206E65772049442C000000000024002730
:10024000002A00000000080002010000030407006B
:10025000000000000000004578697465642E003DD0
:100260003D3D3D3D3D3D3D3D3D3D3D3D3D3D3D3DBE
:100270003D3D3D3D3D3D3D3D00204672536B792067
:1002800053656E736F72204944206368616E6765C1
:1002900072003D3D3D3D3D3D3D3D3D3D3D3D3D3D96
:1002A0003D3D3D3D3D3D3D3D3D3D3D0000000000AF
:1002B000250028002B000000000023002600290054
:1002C00004040404040404040202020202020303FC
:1002D0000303030301020408102040800102040804
:1002E00010200102040810206407080B11241FBE0F
:1002F000CFEFD4E0DEBFCDBF11E0A0E0B1E0E8EE8B
:10030000F6E102C005900D92A436B107D9F723E0BB
:10031000A4E6B1E001C01D92AA39B207E1F711E0ED
:10032000C5E7D1E004C02197FE010E945C0BC437F1
:10033000D107C9F70E9419080C94670B0C940000B0
:100340000F931F93CF93DF938C01C0E0D0E0F801AF
:10035000EC0FFD1F6491662371F0E091DE02F091D5
:10036000DF020190F081E02D8EED92E00995892B5E
:1003700011F02196ECCFCE01DF91CF911F910F911B
:100380000895CF92DF92EF92FF920F931F93CF9336
:10039000DF936C017A018B01C0E0D0E0CE15DF0560
:1003A00089F0D8016D918D01D601ED91FC910190FC
:1003B000F081E02DC6010995892B11F47E0102C060
:1003C0002196ECCFC701DF91CF911F910F91FF9044
:1003D000EF90DF90CF900895FC01538D448D252F31
:1003E00030E0842F90E0821B930B541710F0CF96CF
:1003F000089501970895FC01918D828D981761F001
:10040000828DDF01A80FB11D5D968C91928D9F5F4B
:100410009F73928F90E008958FEF9FEF0895FC01F6
:10042000918D828D981731F0828DE80FF11D858DA9
:1004300090E008958FEF9FEF0895FC01918D228D3C
:10044000892F90E0805C9F4F821B91098F739927C1
:1004500008958EED92E00E941D0221E0892B09F49F
:1004600020E0822F0895FC01848DDF01A80FB11DCB
:10047000A35ABF4F2C91848D90E001968F739927DA
:10048000848FA689B7892C93A089B1898C918064C7
:100490008C93938D848D981306C00288F389E02D88
:1004A00080818F7D80830895EF92FF920F931F9339
:1004B000CF93DF93EC0181E0888F9B8D8C8D981317
:1004C00005C0E889F989808185FD24C0F62E0B8D51
:1004D00010E00F5F1F4F0F731127E02E8C8DE81275
:1004E0000CC00FB607FCFACFE889F989808185FF37
:1004F000F5CFCE010E943302F1CF8B8DFE01E80FC4
:10050000F11DE35AFF4FF0820B8FEA89FB8980814E
:10051000806207C0EE89FF896083E889F98980815C
:100520008064808381E090E0DF91CF911F910F91F3
:10053000FF90EF900895CF93DF93EC01888D88238F
:10054000C9F0EA89FB89808185FD05C0A889B98940
:100550008C9186FD0FC00FB607FCF5CF808185FF1B
:10056000F2CFA889B9898C9185FFEDCFCE010E9489
:100570003302E7CFDF91CF91089580E090E0892B9F
:1005800029F00E94290281110C9400000895833003
:1005900081F028F4813099F08230A1F008958730FD
:1005A000A9F08830B9F08430D1F4809180008F7D3B
:1005B00003C0809180008F7780938000089584B578
:1005C0008F7702C084B58F7D84BD08958091B0007F
:1005D0008F7703C08091B0008F7D8093B000089525
:1005E0001F93CF93DF93282F30E0F901ED5BFD4F90
:1005F0008491F901EC52FD4FD491F901E054FD4F83
:10060000C491CC23C9F0162F81110E94C702EC2F90
:10061000F0E0EE0FFF1FE455FD4FA591B4918FB7A9
:10062000F894111105C09C91ED2FE095E92302C0CB
:10063000EC91ED2BEC938FBFDF91CF911F9108953B
:10064000CF93DF9390E0FC01EC52FD4F2491FC012D
:10065000E054FD4F8491882361F190E0880F991F49
:10066000FC01E75CFD4FC591D491FC01E455FD4FC1
:10067000A591B491611109C09FB7F8948881209524
:1006800082238883EC912E230BC0623061F49FB7E4
:10069000F8943881822F809583238883EC912E2BC8
:1006A0002C939FBF06C08FB7F894E8812E2B288328
:1006B0008FBFDF91CF9108953FB7F8948091A90142
:1006C0009091AA01A091AB01B091AC0126B5A89B75
:1006D00005C02F3F19F00196A11DB11D3FBFBA2FD4
:1006E000A92F982F8827820F911DA11DB11DBC0134
:1006F000CD0142E0660F771F881F991F4A95D1F7F9
:1007000008958F929F92AF92BF92CF92DF92EF9215
:10071000FF926B017C010E945C034B015C01C114E0
:10072000D104E104F104F1F00E945C03DC01CB018F
:1007300088199909AA09BB09883E9340A105B1050A
:1007400070F321E0C21AD108E108F10888EE880EA2
:1007500083E0981EA11CB11CC114D104E104F10472
:1007600019F7DDCFFF90EF90DF90CF90BF90AF9063
:100770009F908F9008952091AF013091B00128177C
:10078000390771F49091AD018091AE01981741F055
:10079000E091AD01F0E0EC59FE4F808190E00895CA
:1007A0008FEF9FEF089508951F93CF93DF93DC01A0
:1007B0005C962D913C915D972115310539F481E0CE
:1007C00090E013969C938E9312973DC05196ED91B5
:1007D000FC91529750969C915097892F80951FB706
:1007E0005E964C915E9741FB772770F941FD6095CD
:1007F000F8944081772311F0492B01C048234083AE
:10080000E9012197F1F748E0508160FF02C0592BC0
:1008100001C058235083E9012197F1F766954150B3
:1008200099F7772321F090818923808303C0808109
:10083000982B90831FBF5C968D919C915D9701973B
:10084000F1F721E030E0C901DF91CF911F910895C8
:100850002091AF013091B0012817390771F48091D0
:10086000AE012091AD0190E0805C9F4F821B910909
:1008700060E470E00E94120B089580E090E008951B
:100880002091AF013091B00128173907B9F4909148
:10089000AD018091AE01981789F0E091AD01F0E0D3
:1008A000EC59FE4F80812091AD0130E02F5F3F4F2A
:1008B0002F7333272093AD0190E008958FEF9FEFC2
:1008C0000895E091AF01F091B001E817F90769F4DC
:1008D000A389B4899C918589809589238C931092F2
:1008E000B0011092AF0181E0089580E0089508956D
:1008F00080E090E0089560E08BE00C942003009786
:1009000069F0FC0101900020E9F73197AF01481B25
:10091000590BBC018EED92E00C94C10180E090E097
:1009200008958F929F92AF92BF920F931F93CF9390
:10093000DF93CDB7DEB7A1970FB6F894DEBF0FBE39
:10094000CDBF19A2423008F44AE08E010F5D1F4F5F
:10095000842E912CA12CB12CA50194010E94260B70
:10096000E62FB901CA0101501109EA3014F4E05D23
:1009700001C0E95CD801EC93232B242B252B61F7D4
:10098000C8010E947F04A1960FB6F894DEBF0FBE87
:10099000CDBFDF91CF911F910F91BF90AF909F90EE
:1009A0008F900895CF93DF930E94A001EC0181E620
:1009B00091E00E947F048C0F9D1FDF91CF910895DD
:1009C000CF93DF9383E691E00E947F04EC0181E600
:1009D00091E00E947F048C0F9D1FDF91CF910895BD
:1009E000CF93C82F0E94E00481E092E00E94D204DD
:1009F0008CEB91E00E94D2048BEA91E00E94A0016E
:100A00006C2F70E080E090E04AE00E94910481E663
:100A100091E0CF910C947F048F929F92AF92BF92FE
:100A2000CF92DF92EF92FF921F93CF93DF938BECE5
:100A300090E00E94D2041AE0C12CD12C7601C1E2D0
:100A4000D1E0812C912C540183948BE793E00E9498
:100A5000400497FFFACF61E08BE00E9420036EE72D
:100A60008BE793E00E94D40369918BE793E00E94A7
:100A7000D4030E947B046CE070E080E090E00E9470
:100A800081038BE793E00E94280403977CF1C11453
:100A9000D104E104F10429F58BE793E00E944004BE
:100AA0008BE793E00E9440046C018BE793E00E9487
:100AB00040040D2C000CEE08FF08FE2CED2CDC2C65
:100AC000CC24092E000CAA0BBB0BDC01992788272C
:100AD000C80ED91EEA1EFB1EC80CD91CEA1CFB1C42
:100AE00005C08C2D90E08815990569F48FEF881A60
:100AF000980AA80AB80A8DE188169104A104B104E5
:100B000009F0A3CF03C0C12CD12C7601115009F0FC
:100B100096CFC114D104E104F10489F083EB90E095
:100B20000E94A0014AE0C701B601772788279927CC
:100B30000E94910481E691E00E947F0404C088E64F
:100B400090E00E94D2048BE793E00E94400497FF5C
:100B5000FACFC701B601DF91CF911F91FF90EF90BF
:100B6000DF90CF90BF90AF909F908F900895CF92DD
:100B7000DF92EF92FF92CF936B017C01C42F4AE08A
:100B800050E064E171E08BE793E00E94C10162E311
:100B900070E080E090E00E948103D0920D01E0922D
:100BA0000E01C11108C08BE791E00E94D20410929F
:100BB0000F0184E425C082E691E00E94A001C701F4
:100BC000B6017727882799274AE00E9491048DE58E
:100BD00091E00E94A0018C2F90E0A0E0B0E04AE0FC
:100BE000BC01CD010E94910489E591E00E94D204EC
:100BF000CD3108F0CCE181E080930F018FEF8C0FB5
:100C000080931001ECE0F1E080E090E027E02E0F0F
:100C10003191830F911D492F5527840F951F9927D7
:100C20002E13F6CF8095809313014AE050E06AE0DE
:100C300071E08BE793E00E94C10162E370E080E025
:100C400090E00E9481034AE050E060E071E08BE7B1
:100C500093E00E94C10162E370E080E090E00E94B6
:100C60008103C11103C084E291E009C00E940C0518
:100C7000C61303C085E091E002C082EE90E0CF9100
:100C8000FF90EF90DF90CF900C94D2040E94620B03
:100C90001F920F920FB60F9211242F933F934F93F1
:100CA0005F936F937F938F939F93AF93BF93EF93D4
:100CB000FF938EED92E00E943302FF91EF91BF917E
:100CC000AF919F918F917F916F915F914F913F91E4
:100CD0002F910F900FBE0F901F9018951F920F929B
:100CE0000FB60F9211242F938F939F93EF93FF933F
:100CF000E091EE02F091EF028081E091F402F09138
:100D0000F50282FD12C090818091F7028F5F8F7390
:100D10002091F802821751F0E091F702F0E0E252E0
:100D2000FD4F958F8093F70201C08081FF91EF9175
:100D30009F918F912F910F900FBE0F901F9018953C
:100D40001F920F920FB60F9211242F933F938F9300
:100D50009F93AF93BF938091A5019091A601A0911D
:100D6000A701B091A8013091A40123E0230F2D37F2
:100D700020F40196A11DB11D05C026E8230F02969F
:100D8000A11DB11D2093A4018093A5019093A601FC
:100D9000A093A701B093A8018091A9019091AA0105
:100DA000A091AB01B091AC010196A11DB11D809342
:100DB000A9019093AA01A093AB01B093AC01BF919C
:100DC000AF919F918F913F912F910F900FBE0F90F8
:100DD0001F9018951F920F920FB60F9211242F9308
:100DE0003F934F935F936F937F938F939F93AF93B3
:100DF000BF93EF93FF93E091AF01F091B001309773
:100E000009F451C0968DA685B785858591FF04C0EC
:100E10009C91892329F447C09C91892309F043C000
:100E2000A389B4899C918589809589238C9386892F
:100E300097890197F1F7608D718DA685B7855585E6
:100E400038E020E0CB010197F1F7822F90E09595F3
:100E50008795282F4C91452309F02068315091F750
:100E6000868D81FD20958091AE0190E001968F7373
:100E700099273091AD01381749F0A091AE01B0E04B
:100E8000AC59BE4F2C938093AE0103C0868D816018
:100E9000868F828D938D0197F1F7A389B4899C91F8
:100EA0008589892B8C93FF91EF91BF91AF919F9191
:100EB0008F917F916F915F914F913F912F910F9003
:100EC0000FBE0F901F9018950F931F93CF93DF9332
:100ED0001092E1021092E00288EE93E0A0E0B0E010
:100EE0008093E2029093E302A093E402B093E502C0
:100EF00021E431E03093DF022093DE0225EC30E084
:100F00003093EB022093EA0224EC30E03093ED02C0
:100F10002093EC0220EC30E03093EF022093EE02BD
:100F200021EC30E03093F1022093F00222EC30E02B
:100F30003093F3022093F20226EC30E03093F50276
:100F40002093F4021092F7021092F8021092F90224
:100F50001092FA0210927E0310927D0380937F0319
:100F600090938003A0938103B093820383E591E083
:100F700090937C0380937B031092920310929103D1
:100F8000109294031092930310929603109295037B
:100F90001092980310929703609199036E7F62609C
:100FA000609399036695617081E068278BE00E94E9
:100FB000F00261E08BE00E9420030FED12E0F801E7
:100FC000849180938B03CBECD2E0FE01849190E07E
:100FD000880F991F84559D4FFC01259134913093C2
:100FE0008D0320938C0360E08BE00E9420038091AE
:100FF000990381FD04C061E08BE00E94F0028BE068
:1010000080938703F801049100938803FE01C49143
:10101000EC2FF0E0EE0FFF1FEA54FD4F8591949105
:1010200090938A0380938903DF91CF911F910F9151
:101030000895789484B5826084BD84B5816084BD50
:1010400085B5826085BD85B5816085BD80916E0066
:10105000816080936E001092810080918100826097
:1010600080938100809181008160809381008091D4
:1010700080008160809380008091B10084608093C3
:10108000B1008091B00081608093B00080917A00BF
:10109000846080937A0080917A00826080937A00E5
:1010A00080917A00816080937A0080917A008068D4
:1010B00080937A001092C10062E08CE00E942003CD
:1010C00061E08DE00E94200360E08DE00E94F0026C
:1010D000109296031092950310929403109293032A
:1010E000109292031092910382E490E090939803FF
:1010F0008093970390918703963108F057C02FE0B3
:1011000030E0309392032093910320E430E0309359
:1011100094032093930327E230E0309396032093C7
:10112000950320916800983050F031E09E3008F42B
:1011300030E081E001C0880F3A95EAF701C084E011
:10114000822B80936800983038F09E3040F09631C2
:1011500048F020E030E008C02DE630E005C02BE686
:1011600030E002C02CE630E030938F0320938E03F2
:10117000983030F481E001C0880F9A95EAF70EC0EC
:10118000292F30E09E3018F42850310902C02E502B
:10119000310981E001C0880F2A95EAF78093900316
:1011A00080919703909198030197F1F780919503AF
:1011B00090919603892B21F18091AF019091B0011C
:1011C00023E08B379207E1F0009711F00E94610451
:1011D000809199038E7F809399031092AE011092B3
:1011E000AD018BE793E09093B0018093AF01E09164
:1011F0008E03F0918F03908180919003892B8083DF
:101200000E947B04E091EE02F091EF0282E0808385
:10121000E091EE02F091EF021082E091EA02F0918B
:10122000EB021082E091EC02F091ED0280E180830C
:101230001092F602E091F202F091F30286E08083D0
:10124000E091F002F091F102808180618083E09171
:10125000F002F091F102808188608083E091F002D9
:10126000F091F102808180688083E091F002F0913A
:10127000F10280818F7D8083E6EBF1E08FEF808348
:10128000399692E0E63DF907D1F7EFE4F2E0849178
:10129000E0EEF2E0D491ECECF2E0C491CC2309F45E
:1012A000AFC181110E94C702EC2FF0E0EE0FFF1FCB
:1012B000EA54FD4FA591B491EC91ED2309F4A0C13E
:1012C00019E090E2D92E77247A9423E0C22E8091FF
:1012D000DD02882309F499C08EED92E00E94FB01A3
:1012E000EC019093DC028093DB028E37910531F4A0
:1012F0008091200181508093200102C0C092200182
:101300008091200181115FC0C09220010E94E00401
:1013100082E992E00E94D20489E792E00E94D2041E
:101320008FE592E00E94D2040E94E0040E940C0526
:101330004B015C016115710581059105E9F1C62F2D
:10134000862F0E94F0048EED92E00E94FB0183350F
:10135000910559F174F48D329105E9F01CF48B97E5
:10136000F1F0F1CF8D339105D1F082359105F9F08F
:10137000EACF82379105D9F03CF488359105E1F048
:101380008F35910541F0DFCF8337910571F08837B4
:10139000910591F0D8CFC15031F4CCE104C0CF5FBA
:1013A000CD3108F0C1E08C2FCCCF4C2F01C040E0F4
:1013B000C501B4010E94B7050E94E00487E592E0F0
:1013C0000E94D2041AC1D7FD10C061E08BE00E94D8
:1013D00020036C2F8BE793E00E94D4030E947B04D0
:1013E0006C2F8EED92E00E9454028BE793E00E94F6
:1013F00040049093DC028093DB0297FDFEC0682FCF
:101400008EED92E00E945402F8C08EED92E00E94B0
:101410001D02892B09F47BC08EED92E00E94FB0136
:101420009093DA028093D9022091D802222309F402
:1014300042C04091D702411103C08093D60221C01F
:1014400060911E0170911F01242F30E0169FF00162
:10145000179FF00D1124E20FF31FEA54FE4F508145
:101460005D3719F4582F5D2501C0582F169FF001E4
:10147000179FF00D11242E0F3F1FF901EA54FE4F64
:1014800050838D37910519F04F5F4093D70220911B
:10149000D702293080F01092D80220911E0130919D
:1014A0001F01129FF001139FF00D1124EA54FE4F0B
:1014B0002091D60220838E37910549F580911E0137
:1014C00090911F018F31910524F49C012F5F3F4FB4
:1014D00002C020E030E0129FF001139FF00D1124B4
:1014E000EA54FE4F20812F3F91F4019680329105FE
:1014F0002CF490931F0180931E0104C010921F01D1
:1015000010921E011092D70281E08093D8028BE7DF
:1015100093E00E942804892B09F46FC08BE793E0C5
:101520000E9440047C019093B5018093B401009126
:10153000B301A02EB12C1A9DF0011B9DF00D1124BA
:10154000EA54FE4F80818F3F09F44EC090E0E816C8
:10155000F90609F049C08091B1019091B2018E372E
:10156000910509F041C064E070E080E090E00E94E5
:1015700081038BE793E00E942804892BA9F561E0A1
:101580008BE00E942003E9E00E9FE0011124C95482
:10159000DE4F88E0582E4E01688083E8860D823049
:1015A00038F46DE78BE793E00E94D4036D246882E2
:1015B0002196F40160818BE793E00E94D4035A9452
:1015C0005110E9CF0E947B041A9DF0011B9DF00D84
:1015D0001124EA54FE4F70820F5F003218F400931A
:1015E000B30102C01092B3016E2D8EED92E00E9405
:1015F0005402F092B201E092B1010E94BD0267CEA6
:1016000081E08093DD0261E08DE00E94F00258CE1F
:1016100083E591E090937C0380937B038BE793E0D9
:101620000C94610497FB072E16F4009407D077FD05
:1016300009D00E94480B07FC05D03EF49095819597
:101640009F4F0895709561957F4F0895A1E21A2EDE
:10165000AA1BBB1BFD010DC0AA1FBB1FEE1FFF1F56
:10166000A217B307E407F50720F0A21BB30BE40BA6
:10167000F50B661F771F881F991F1A9469F76095ED
:101680007095809590959B01AC01BD01CF010895A7
:10169000AA1BBB1B51E107C0AA1FBB1FA617B70798
:1016A00010F0A61BB70B881F991F5A95A9F78095B4
:1016B0009095BC01CD010895EE0FFF1F0590F491A8
:1016C000E02D099481E090E0F8940C94670B11E010
:1016D000C5E7D1E004C0FE010E945C0B2196C6372D
:0816E000D107C9F7F894FFCF10
:1016E8007E1C20FFFF00000000DF7E1C3100000090
:1016F800000000007E1C21FFFF00000000DEFFFF4D
:101708000300A12283E445C66748E96ACBAC0D8E85
:101718002FD071F253349516B79839BA1B000000D0
:10172800005402C101EC019B021D02FB010F0200E3
:10173800000000D403C1017804D30328044004BB8B
:04174800030D0A0083
:00000001FF
